:100000000C947B000C94A3000C94A3000C94A3000C
:100010000C94A3000C94A3000C94A3000C94A300D4
:100020000C94A3000C94A3000C94A3000C94A300C4
:100030000C94A3000C94A3000C94A3000C94A300B4
:100040000C946D050C94A3000C94A0030C94E30392
:100050000C94A3000C94A3000C94A3000C94A30094
:100060000C94A3000C94A300000000070002010000
:100070000003040600000000000000000102040864
:100080001020408001020408102001020408102002
:10009000040404040404040402020202020203032E
:1000A0000303030300000000250028002B000000CC
:1000B0000000240027002A004E414E494E49545961
:1000C000494E46CDCCCC3D0AD7233C17B7D1387723
:1000D000CC2B329595E6241FB14F0A000020410039
:1000E00000C84200401C4620BCBE4CCA1B0E5AAE83
:1000F000C59D74009F0411241FBECFEFD8E0DEBF62
:10010000CDBF11E0A0E0B1E0E8E8F3E102C0059066
:100110000D92AC33B107D9F722E0ACE3B1E001C0F6
:100120001D92AB3BB207E1F710E0C6EFD0E004C090
:100130002297FE010E94E007C43FD107C9F70E9441
:10014000F5040C94C2090C94000040E052EC61E00C
:1001500070E086E092E00E941E044AE050E060E019
:1001600070E086E092E00E94D30261E080910E018F
:100170000E94360261E080910C010E94360261E02B
:1001800080910A010E94360261E0809108010E947C
:10019000360261E0809106010E94360261E08091A2
:1001A00004010E94360261E0809102010E94360241
:1001B00061E0809100010C943602CF92DF92EF92C1
:1001C000FF92CF93DF936B017C01C42FD22F20E0ED
:1001D00030E0A9010E944A0787FD0BC060E08D2F27
:1001E0000E946F0220E030E04FE753E4C701B60100
:1001F00010C061E08D2F0E946F0220E030E040E8E7
:100200005FE3C701B6010E94FF0520E030E04FE741
:1002100053E40E944E070E9467068C2FDF91CF9116
:10022000FF90EF90DF90CF900C94AE01CF92DF92D1
:10023000EF92FF9240913C0150913D0128EC30E05B
:10024000241B350B425C5E4F6AE086E092E00E9420
:10025000D90220913C0130913D01280F391F309384
:100260003D0120933C01181619060CF06DC0F901F0
:10027000E35CFE4F80818A3009F066C06EE371E076
:1002800086E092E00E945B0545E050E060E171E0AD
:100290008EE391E00E94FF07892B09F055C087E4A7
:1002A00091E00E94F3076B017C0142E050E066E1BF
:1002B00071E084E491E00E94FF07892B49F42091CA
:1002C00006013091070140910E0150910F0138C095
:1002D00042E050E069E171E084E491E00E94FF07B0
:1002E000892B49F4209104013091050140910C01C2
:1002F00050910D0125C042E050E06CE171E084E4D2
:1003000091E00E94FF07892B49F42091020130916E
:10031000030140910A0150910B0112C042E050E0EC
:100320006FE171E084E491E00E94FF07892B61F4A2
:100330002091000130910101409108015091090183
:10034000C701B6010E94DD0062E271E086E092E042
:10035000FF90EF90DF90CF900C945B051F93CF93AD
:10036000DF93182FEB0161E00E943602209711F411
:1003700060E004C0CF3FD10539F461E0812FDF9107
:10038000CF911F910C946F02E12FF0E0E859FF4FDD
:10039000E491E330F9F048F4E130B9F0E230A1F54E
:1003A00084B5806284BDC8BD34C0E630E9F0E73072
:1003B00019F1E43049F580918000806280938000DB
:1003C000D0938B00C0938A0024C084B5806884BD1C
:1003D000C7BD1FC080918000806880938000D0934B
:1003E0008900C093880015C08091B0008068809318
:1003F000B000C093B3000DC08091B00080628093C4
:10040000B000C093B40005C0C038D1050CF0B5CF22
:10041000AFCFDF91CF911F910895833081F028F401
:10042000813099F08230A1F008958630A9F08730AC
:10043000B9F08430D1F4809180008F7D03C0809129
:1004400080008F7780938000089584B58F7702C0F5
:1004500084B58F7D84BD08958091B0008F7703C0EF
:100460008091B0008F7D8093B0000895CF93DF938B
:1004700090E0FC01E458FF4F2491FC01E057FF4F4E
:100480008491882349F190E0880F991FFC01E2557F
:10049000FF4FA591B4918C559F4FFC01C591D4910C
:1004A0009FB7611108C0F8948C91209582238C939A
:1004B000888182230AC0623051F4F8948C91322FE3
:1004C000309583238C938881822B888304C0F89491
:1004D0008C91822B8C939FBFDF91CF9108950F93C6
:1004E0001F93CF93DF931F92CDB7DEB7282F30E055
:1004F000F901E859FF4F8491F901E458FF4F149135
:10050000F901E057FF4F04910023C9F0882321F03F
:1005100069830E940D026981E02FF0E0EE0FFF1F5A
:10052000EC55FF4FA591B4919FB7F8948C91611150
:1005300003C01095812301C0812B8C939FBF0F9026
:10054000DF91CF911F910F9108950F931F93CF9338
:10055000DF93EC010E94B705688779878A879B87BC
:10056000E881F9810680F781E02DCE01099597FF9A
:1005700015C00E94B705088519852A853B85601B33
:10058000710B820B930B0C811D812E813F816017B3
:1005900071078207930720F38FEF9FEFDF91CF91D1
:1005A0001F910F910895FC014483558366837783DF
:1005B0000895AF92BF92CF92DF92EF92FF920F9386
:1005C0001F93CF93DF936C01790121153105B9F0A9
:1005D0008A01C0E0D0E0A62EBB24A7FCB094C601DF
:1005E0000E94A50297FD0EC08A159B0559F0F801DF
:1005F00081938F012196CE15DF0589F703C080E036
:1006000090E001C0CE01DF91CF911F910F91FF903B
:10061000EF90DF90CF90BF90AF900895FC012485BC
:100620003585F901E05CFF4F808191813296208110
:100630003181821B930B8F7399270895FC01848568
:100640009585FC01E05CFF4F40815181329620810D
:1006500031814217530741F00190F081E02DE80FFE
:10066000F91F808190E008958FEF9FEF0895FC01BE
:1006700084859585FC01E05CFF4F40815181329675
:10068000208131814217530779F0A081B181A80FF1
:10069000B91F8C91208131812F5F3F4F2F733327FA
:1006A0003183208390E008958FEF9FEF0895FC0140
:1006B00081A1882329F0A489B5898C9186FFFBCF7D
:1006C00011A20895CF93DF93FC0126853785D901C8
:1006D000A05CBF4F8D919C91119701968F739927C4
:1006E000E901CE5BDF4F4881598184179507D9F323
:1006F0000D90BC91A02DA20FB31F6C93A685B7855A
:10070000A05CBF4F11969C938E93A689B7892C91BC
:1007100081E090E0078C02C0880F991F0A94E2F7ED
:10072000282B2C9381E081A30488F589E02D80811A
:100730008064808381E090E0DF91CF9108950895F7
:100740001F920F920FB60F9211242F933F934F9346
:100750008F939F93EF93FF938091C00082FD1CC005
:100760004091C6008091AC029091AD0201968F73CA
:1007700099272091AE023091AF028217930771F052
:10078000E091AC02F091AD02E459FD4F40839093AB
:10079000AD028093AC0202C08091C600FF91EF9140
:1007A0009F918F914F913F912F910F900FBE0F907E
:1007B0001F90189586E092E00E940E03892B11F09D
:1007C0000C949F0308951F920F920FB60F9211245D
:1007D0002F933F938F939F93EF93FF932091680202
:1007E0003091690280916A0290916B022817390753
:1007F00031F48091C1008F7D8093C10014C0E091DD
:100800006A02F0916B02E85DFD4F208180916A02DF
:1008100090916B0201968F73992790936B0280934E
:100820006A022093C600FF91EF919F918F913F91B3
:100830002F910F900FBE0F901F901895CF92DF92BF
:10084000EF92FF92CF93DF93EC016A017B01411598
:1008500081EE580761057105F9F0EC89FD8981E0A9
:1008600090E008A002C0880F991F0A94E2F78083E5
:1008700060E079E08DE390E0A70196010E94B10766
:1008800021503109410951095695479537952795CA
:10089000211580E1380798F0EC89FD89108260E825
:1008A00074E88EE190E0A70196010E94B107215003
:1008B0003109410951095695479537952795E8899A
:1008C000F9893083EA89FB89208319A2EE89FF899F
:1008D000408181E090E09C010C8C02C0220F331F0C
:1008E0000A94E2F7422B4083EE89FF8940819C0104
:1008F0000D8C02C0220F331F0A94E2F7422B408373
:10090000EE89FF8940819C010E8C02C0220F331FAB
:100910000A94E2F7422B4083EE89FF8920810F8CF5
:1009200002C0880F991F0A94E2F780958223808382
:10093000DF91CF91FF90EF90DF90CF9008951092CC
:1009400009021092080288EE93E0A0E0B0E08093E4
:100950000A0290930B02A0930C02B0930D0280E365
:1009600091E090930702809306028CE692E09093C8
:1009700013028093120288E292E090931502809312
:10098000140285EC90E0909317028093160284EC99
:1009900090E0909319028093180280EC90E090937D
:1009A0001B0280931A0281EC90E090931D028093C9
:1009B0001C0282EC90E090931F0280931E0286EC52
:1009C00090E0909321028093200284E080932202A1
:1009D00083E08093230287E08093240285E0809364
:1009E000250281E08093260208950E94C3050E949B
:1009F000A500CAEDD3E00E9416012097E1F30E9402
:100A0000DA03F9CFCF92DF92EF92FF920F931F9309
:100A1000CF93DF936C017A01EB01E60EF71E00E045
:100A200010E0CE15DF0561F06991D601ED91FC91E2
:100A30000190F081E02DC6010995080F191FF1CF33
:100A4000C801DF91CF911F910F91FF90EF90DF9040
:100A5000CF9008956115710581F0DB010D900020A4
:100A6000E9F7AD0141505109461B570BDC01ED91EF
:100A7000FC910280F381E02D099480E090E00895DC
:100A8000DC01ED91FC910190F081E02D09940F9330
:100A90001F93CF93DF93EC016DE00E9440058C0122
:100AA0006AE0CE010E944005800F911FDF91CF9137
:100AB0001F910F9108950F931F93CF93DF93EC0134
:100AC0000E942A058C01CE010E944705800F911FCC
:100AD000DF91CF911F910F9108951F920F920FB642
:100AE0000F9211242F933F938F939F93AF93BF93B4
:100AF0008091B1029091B202A091B302B091B40280
:100B00003091B00223E0230F2D3720F40196A11D70
:100B1000B11D05C026E8230F0296A11DB11D20932B
:100B2000B0028093B1029093B202A093B302B0934B
:100B3000B4028091B5029091B602A091B702B09133
:100B4000B8020196A11DB11D8093B5029093B60223
:100B5000A093B702B093B802BF91AF919F918F91CC
:100B60003F912F910F900FBE0F901F9018952FB7A8
:100B7000F8946091B1027091B2028091B3029091A9
:100B8000B4022FBF0895789484B5826084BD84B583
:100B9000816084BD85B5826085BD85B5816085BD78
:100BA000EEE6F0E0808181608083E1E8F0E0108291
:100BB000808182608083808181608083E0E8F0E0D2
:100BC000808181608083E1EBF0E0808184608083BC
:100BD000E0EBF0E0808181608083EAE7F0E08081F3
:100BE0008460808380818260808380818160808353
:100BF0008081806880831092C10008955058BB277F
:100C0000AA270ED00DC1FED030F003D120F031F470
:100C10009F3F11F41EF4F3C00EF4E095E7FBE9C02A
:100C2000E92F0FD180F3BA1762077307840795077E
:100C300018F071F49EF527C10EF4E0950B2EBA2F33
:100C4000A02D0B01B90190010C01CA01A0011124D2
:100C5000FF27591B99F0593F50F4503E68F11A167E
:100C6000F040A22F232F342F4427585FF3CF46950F
:100C700037952795A795F0405395C9F77EF41F1631
:100C8000BA0B620B730B840BBAF09150A1F0FF0FFB
:100C9000BB1F661F771F881FC2F70EC0BA0F621FE7
:100CA000731F841F48F4879577956795B795F795D7
:100CB0009E3F08F0B3CF9395880F08F09927EE0F69
:100CC00097958795089571D008F481E0089504D030
:100CD0006894B111D9C00895BCD088F09F5790F0A6
:100CE000B92F9927B751A0F0D1F0660F771F881F51
:100CF000991F1AF0BA95C9F712C0B13081F0C3D06C
:100D0000B1E00895C0C0672F782F8827B85F39F009
:100D1000B93FCCF3869577956795B395D9F73EF4AF
:100D200090958095709561957F4F8F4F9F4F089557
:100D3000E89409C097FB3EF4909580957095619575
:100D40007F4F8F4F9F4F9923A9F0F92F96E9BB272B
:100D50009395F695879577956795B795F111F8CFA7
:100D6000FAF4BB0F11F460FF1BC06F5F7F4F8F4F12
:100D70009F4F16C0882311F096E911C0772321F008
:100D80009EE8872F762F05C0662371F096E8862FA0
:100D900070E060E02AF09A95660F771F881FDAF7F7
:100DA000880F9695879597F90895990F0008550F24
:100DB000AA0BE0E8FEEF16161706E807F907C0F0E1
:100DC00012161306E407F50798F0621B730B840BE9
:100DD000950B39F40A2661F0232B242B252B21F4C3
:100DE00008950A2609F4A140A6958FEF811D811D63
:100DF000089597F99F6780E870E060E008959FEF9D
:100E000080EC089500240A941616170618060906A1
:100E1000089500240A941216130614060506089570
:100E2000092E0394000C11F4882352F0BB0F40F4F8
:100E3000BF2B11F460FF04C06F5F7F4F8F4F9F4F38
:100E4000089557FD9058440F551F59F05F3F71F0BA
:100E50004795880F97FB991F61F09F3F79F0879521
:100E60000895121613061406551FF2CF4695F1DFAA
:100E700008C0161617061806991FF1CF869571053A
:100E8000610508940895E894BB2766277727CB016E
:100E900097F908958ADF08F48FEF08950BD0C0CF3B
:100EA000B1DF28F0B6DF18F0952309F0A2CFA7CF65
:100EB0001124EACFC6DFA0F3959FD1F3950F50E040
:100EC000551F629FF001729FBB27F00DB11D639FFC
:100ED000AA27F00DB11DAA1F649F6627B00DA11DA2
:100EE000661F829F2227B00DA11D621F739FB00D48
:100EF000A11D621F839FA00D611D221F749F3327B8
:100F0000A00D611D231F849F600D211D822F762F50
:100F10006A2F11249F5750408AF0E1F088234AF04D
:100F2000EE0FFF1FBB1F661F771F881F9150504099
:100F3000A9F79E3F510570F05CCFA6CF5F3FECF361
:100F4000983EDCF3869577956795B795F795E79585
:100F50009F5FC1F7FE2B880F911D9695879597F996
:100F60000895A1E21A2EAA1BBB1BFD010DC0AA1FEA
:100F7000BB1FEE1FFF1FA217B307E407F50720F002
:100F8000A21BB30BE40BF50B661F771F881F991F7D
:100F90001A9469F760957095809590959B01AC01C6
:100FA000BD01CF0108950E94E407A59F900DB49F55
:100FB000900DA49F800D911D11240895EE0FFF1F29
:100FC0000590F491E02D0994A29FB001B39FC00158
:100FD000A39F700D811D1124911DB29F700D811D65
:100FE0001124911D0895662777270C940D089111FF
:100FF00077C1803219F089508550D0F70895FB01F0
:10100000DC014150504030F08D910190801919F46D
:101010000020B9F7881B990B0895A0E0B0E0E3E148
:10102000F8E00C9491098B016115710521F0DB0149
:101030008C9311969C93EC015E01BFEFAB1ABB0A37
:101040007501C8808C2D90E00E94F707892B11F064
:10105000E501F2CFEDE2CE1208C07E01F2E0EF0E24
:10106000F11CC980DD24D39409C02BE2C21205C053
:101070007E0142E0E40EF11CC980D12CE7012197EA
:1010800043E050E060EC70E0CE010E947309892BD0
:10109000C1F4239645E050E06BEB70E0CE010E9476
:1010A0007309892B09F425960115110519F0D8014A
:1010B000CD93DC93D11006C160E070E080E89FE73B
:1010C0000AC143E050E068EB70E0CE010E94730972
:1010D000892B59F40115110509F4F9C0B2E0EB0EA2
:1010E000F11CF801F182E082F2C0F70160E070E0EB
:1010F000CB01C0E0D0E07F01A0EDAA2EAC0C29E02E
:101100002A1530F14D2D4260B42E2D2D2870D2FEBF
:1011100004C0211125C0219623C021112197A5E0EB
:10112000B0E09B01AC010E94D307660F771F881FB8
:10113000991F6A0D711D811D911D6839A9E97A07F2
:101140008A07A9E19A0760F0BD2DB660BB2E08C0E2
:101150002EEFA2120AC0D3FC50C04D2D4860B42E11
:101160003196D701CC90DB2CC6CF2C2D2F7D25348A
:1011700009F043C0A081AD3241F4BD2DB061DB2E3A
:101180007F0122E0E20EF11C0CC07F01AB3231F096
:101190004FEFE41AF40A21E030E006C0A2E0EA0EC4
:1011A000F11CA18122E030E0A053AA3018F0E21A2D
:1011B000F30A23C0F70120E030E02038BCE03B0711
:1011C0005CF4A901440F551F440F551F240F351F10
:1011D000220F331F2A0F311DAF014F5F5F4F7A017E
:1011E000A081A053AA3010F4FA01E7CFD4FE03C0C7
:1011F000319521953109C20FD31FD1FE09C00115C8
:10120000110531F0E1E0EE1AF108D801ED92FC92FF
:101210000E9498062D2D2370233019F04B015C019C
:1012200006C04B015C01B7FAB094B7F8B09420E067
:1012300030E0A901C501B4010E946306882309F4C6
:101240003EC0D7FF06C0D195C195D10907ED10E08A
:1012500002C00FEE10E06801B8E1CB1AD10890E2AD
:10126000E92EF12CCE15DF0574F0F80125913591AA
:1012700045915491C501B4010E944E074B015C0198
:10128000CE19DF09EFCF04501109F594E7940C153E
:101290001D0541F78A2D880F8B2D881F8F3F49F040
:1012A00020E030E0A901C501B4010E94630681116C
:1012B00006C082E290E09093BA028093B902C50121
:1012C000B40109C060E070E080E89FEF04C060E016
:1012D00070E080EC9FE7CDB7DEB7ECE00C94AD0991
:1012E000992788270895FB01DC014150504088F080
:1012F0008D9181341CF08B350CF4805E65916134E6
:101300001CF06B350CF4605E861B611171F3990B58
:101310000895881BFCCF2F923F924F925F926F925D
:101320007F928F929F92AF92BF92CF92DF92EF9275
:10133000FF920F931F93CF93DF93CDB7DEB7CA1BF6
:10134000DB0B0FB6F894DEBF0FBECDBF09942A8821
:10135000398848885F846E847D848C849B84AA84C9
:10136000B984C884DF80EE80FD800C811B81AA8156
:10137000B981CE0FD11D0FB6F894DEBF0FBECDBF21
:08138000ED010895F894FFCF80
:1013880007000400030002000A0009000600050027
:101398006D6F746F7200666C00667200626C00623A
:1013A80072006C697374656E696E670000000000F6
:0C13B800620302050E0337031E035703F7
:00000001FF
